:020000040800F2
:1000000000000120D9F40008BDE70008BFE70008A0
:10001000C1E70008C3E70008C5E7000800000000CA
:1000200000000000000000000000000081CE000879
:10003000C7E700080000000021CF000885CF0008B6
:1000400029F5000829F5000829F5000829F5000818
:1000500029F5000829F5000829F5000829F5000808
:1000600029F5000829F5000829F5000829F50008F8
:1000700029F5000829F50008C9E70008D9E70008B4
:1000800029F5000829F50008E9E70008F9E7000864
:1000900009E8000829F5000829F5000819E8000812
:1000A00029F5000825E8000829F5000829F50008C9
:1000B00071E8000881E8000891E8000829F50008C7
:1000C00029F5000829F5000829F50008A1E800082D
:1000D00029F50008B1E80008C1E8000815E90008A2
:1000E00029F5000829F5000829F5000829F5000878
:1000F00029F5000829F5000829F5000829F5000868
:1001000029F50008000000000000000029F50008A3
:1001100025E9000829F5000835E9000829F5000857
:1001200029F5000829F5000829F5000829F5000837
:1001300029F5000829F50008000000000000000073
:1001400029F5000829F5000829F50008000000003D
:10015000000000000000000000000000000000009F
:1001600029F5000829F5000829F5000829F50008F7
:1001700029F5000829F5000829F5000829F50008E7
:1001800029F5000829F50008000000000000000023
:0401900029F5000845
:1001A00010B5054C237833B9044B13B10448AFF3B1
:1001B00000800123237010BDC8040020000000004F
:1001C000EC2D010808B5034B1BB103490348AFF3FD
:1001D000008008BD00000000CC040020EC2D0108C8
:1001E00070B54FF0FF0C4CF4E06C1CEA11541DBFCD
:1001F0001CEA135594EA0C0F95EA0C0F00F0DEF898
:100200002C4481EA030621EA4C5123EA4C5350EA7C
:10021000013518BF52EA033541F4801143F48013CD
:1002200038D0A0FB02CE4FF00005E1FB02E506F05E
:100230000042E0FB03E54FF00006E1FB03569CF0B3
:10024000000F18BF4EF0010EA4F1FF04B6F5007FB9
:1002500064F5407404D25FEA4E0E6D4146EB06062B
:1002600042EAC62141EA55514FEAC52040EA5E50B4
:100270004FEACE2EB4F1FD0C88BFBCF5E06F1ED85E
:10028000BEF1004F08BF5FEA500E50F1000041EB95
:10029000045170BD06F0004646EA010140EA020042
:1002A00081EA0301B4EB5C04C2BFD4EB0C0541EA64
:1002B000045170BD41F480114FF0000E013C00F379
:1002C000AB8014F1360FDEBF002001F0004170BD9D
:1002D000C4F10004203C35DA0C341BDC04F11404B6
:1002E000C4F1200500FA05F320FA04F001FA05F242
:1002F00040EA020001F0004221F0004110EBD3700F
:1003000021FA04F642EB06015EEA430E08BF20EA3A
:10031000D37070BDC4F10C04C4F1200500FA04F3DD
:1003200020FA05F001FA04F240EA020001F000416F
:1003300010EBD37041F100015EEA430E08BF20EAE2
:10034000D37070BDC4F1200500FA05F24EEA020E2A
:1003500020FA04F301FA05F243EA020321FA04F059
:1003600001F0004121FA04F220EA020000EBD37010
:100370005EEA430E08BF20EAD37070BD94F0000F10
:100380000FD101F00046400041EB010111F4801F44
:1003900008BF013CF7D041EA060195F0000F18BFF5
:1003A000704703F00046520043EB030313F4801F31
:1003B00008BF013DF7D043EA0603704794EA0C0FEB
:1003C0000CEA135518BF95EA0C0F0CD050EA410601
:1003D00018BF52EA4306D1D181EA030101F000417E
:1003E0004FF0000070BD50EA410606BF10461946A6
:1003F00052EA430619D094EA0C0F02D150EA0136B2
:1004000013D195EA0C0F05D152EA03361CBF1046F2
:1004100019460AD181EA030101F0004141F0FE4191
:1004200041F470014FF0000070BD41F0FE4141F415
:10043000780170BD70B54FF0FF0C4CF4E06C1CEA15
:1004400011541DBF1CEA135594EA0C0F95EA0C0FCA
:1004500000F0A7F8A4EB050481EA030E52EA033585
:100460004FEA013100F088804FEA03334FF08055A6
:1004700045EA131343EA12634FEA022245EA1115D3
:1004800045EA10654FEA00260EF000419D4208BF84
:10049000964244F1FD0404F5407402D25B084FEA31
:1004A0003202B61A65EB03055B084FEA32024FF4DD
:1004B00080104FF4002CB6EB020E75EB030E22BF3A
:1004C000B61A754640EA0C005B084FEA3202B6EBFA
:1004D000020E75EB030E22BFB61A754640EA5C00A9
:1004E0005B084FEA3202B6EB020E75EB030E22BF39
:1004F000B61A754640EA9C005B084FEA3202B6EB3A
:10050000020E75EB030E22BFB61A754640EADC00F8
:1005100055EA060E18D04FEA051545EA16754FEA5A
:1005200006164FEAC30343EA52734FEAC2025FEA78
:100530001C1CC0D111F4801F0BD141EA00014FF007
:1005400000004FF0004CB6E711F4801F04BF0143D8
:100550000020B4F1FD0C88BFBCF5E06F3FF6AFAEF4
:10056000B5EB030C04BFB6EB020C5FEA500C50F184
:10057000000041EB045170BD0EF0004E4EEA113107
:1005800014EB5C04C2BFD4EB0C0541EA045170BD0E
:1005900041F480114FF0000E013C90E645EA060E52
:1005A0008DE60CEA135594EA0C0F08BF95EA0C0F80
:1005B0003FF43BAF94EA0C0F0AD150EA01347FF4C8
:1005C00034AF95EA0C0F7FF425AF104619462CE79F
:1005D00095EA0C0F06D152EA03353FF4FDAE104602
:1005E000194622E750EA410618BF52EA43067FF453
:1005F000C5AE50EA41047FF40DAF52EA43057FF4E3
:10060000EBAE12E74FEA4102B2F1E04324BFB3F58B
:10061000001CDCF1FE5C0DD901F0004C4FEAC00279
:100620004CEA5070B2F1004F40EB830008BF20F05D
:100630000100704711F0804F21D113F13872BCBF17
:1006400001F00040704741F480114FEA5252C2F16C
:100650001802C2F1200C10FA0CF320FA02F018BFB5
:1006600040F001004FEAC1234FEAD32303FA0CFC08
:1006700040EA0C0023FA02F34FEA4303CCE77FEA97
:10068000625307D150EA01331EBF4FF0FE4040F4E1
:100690004000704701F0004040F0FE4040F4000090
:1006A000704700BF034613F8012B002AFBD1181A2C
:1006B000013870470000000000000000000000004A
:1006C00001F0FF01102A2BDB10F0070F08D010F803
:1006D000013B013A8B422DD010F0070F42B3F6D107
:1006E000F0B441EA012141EA014122F007047FF020
:1006F00000070023F0E80256083C85EA010586EA77
:10070000010685FA47F5A3FA87F586FA47F6A5FAB2
:1007100087F68EB9EED1F0BC01F0FF0102F00702BE
:1007200032B110F8013B013A83EA010313B1F8D169
:100730000020704701387047002D06BF354603384A
:10074000073815F0010F07D1013015F4807F02BF83
:10075000013015F4C03F0130F0BC0138704700BFD4
:1007600081F0004102E000BF83F0004330B54FEA62
:1007700041044FEA430594EA050F08BF90EA020FCF
:100780001FBF54EA000C55EA020C7FEA645C7FEA62
:10079000655C00F0E2804FEA5454D4EB5555B8BF85
:1007A0006D420CDD2C4480EA020281EA030382EAF6
:1007B000000083EA010180EA020281EA0303362D88
:1007C00088BF30BD11F0004F4FEA01314FF4801C5B
:1007D0004CEA113102D0404261EB410113F0004F6D
:1007E0004FEA03334CEA133302D0524263EB430324
:1007F00094EA050F00F0A780A4F10104D5F1200EC2
:100800000DDB02FA0EFC22FA05F2801841F100011C
:1008100003FA0EF2801843FA05F359410EE0A5F1F0
:1008200020050EF1200E012A03FA0EFC28BF4CF021
:10083000020C43FA05F3C01851EBE37101F00045D7
:1008400007D54FF0000EDCF1000C7EEB00006EEBE4
:100850000101B1F5801F1BD3B1F5001F0CD349086E
:100860005FEA30004FEA3C0C04F101044FEA4452C5
:1008700012F5800F80F09A80BCF1004F08BF5FEA4C
:10088000500C50F1000041EB045141EA050130BD2C
:100890005FEA4C0C404141EB010111F4801FA4F1CF
:1008A0000104E9D191F0000F04BF01460020B1FA24
:1008B00081F308BF2033A3F10B03B3F120020CDA5C
:1008C0000C3208DD02F1140CC2F10C0201FA0CF03A
:1008D00021FA02F10CE002F11402D8BFC2F1200C9F
:1008E00001FA02F120FA0CFCDCBF41EA0C01904055
:1008F000E41AA2BF01EB0451294330BD6FEA04049E
:100900001F3C1CDA0C340EDC04F11404C4F1200288
:1009100020FA04F001FA02F340EA030021FA04F39A
:1009200045EA030130BDC4F10C04C4F1200220FAF1
:1009300002F001FA04F340EA0300294630BD21FA2F
:1009400004F0294630BD94F0000F83F4801306BFF5
:1009500081F480110134013D4EE77FEA645C18BFE9
:100960007FEA655C29D094EA050F08BF90EA020F80
:1009700005D054EA000C04BF1946104630BD91EA78
:10098000030F1EBF0021002030BD5FEA545C05D17B
:100990004000494128BF41F0004130BD14F58004BA
:1009A0003CBF01F5801130BD01F0004545F0FE412E
:1009B00041F470014FF0000030BD7FEA645C1ABF63
:1009C000194610467FEA655C1CBF0B46024650EA9A
:1009D000013406BF52EA033591EA030F41F40021C6
:1009E00030BD00BF90F0000F04BF0021704730B54C
:1009F0004FF4806404F132044FF000054FF0000121
:100A000050E700BF90F0000F04BF0021704730B5E1
:100A10004FF4806404F1320410F0004548BF4042B6
:100A20004FF000013EE700BF42004FEAE2014FEA0B
:100A300031014FEA02701FBF12F07F4393F07F4FE6
:100A400081F06051704732F07F4208BF704793F0E9
:100A50007F4F04BF41F40021704730B54FF46074FC
:100A600001F0004521F000411CE700BF50EA0102FF
:100A700008BF704730B54FF000050AE050EA0102A8
:100A800008BF704730B511F0004502D5404261EB18
:100A900041014FF4806404F132045FEA915C3FF459
:100AA000D8AE4FF003025FEADC0C18BF03325FEAF6
:100AB000DC0C18BF033202EBDC02C2F1200300FAA7
:100AC00003FC20FA02F001FA03FE40EA0E0021FACC
:100AD00002F11444BDE600BF4FF0FF3C06E000BF4A
:100AE0004FF0010C02E000BF4FF0010C4DF804CDB7
:100AF0004FEA410C7FEA6C5C4FEA430C18BF7FEA77
:100B00006C5C1BD001B050EA410C0CBF52EA430CA4
:100B100091EA030F02BF90EA020F0020704710F124
:100B2000000F91EA030F58BF994208BF90422CBFB3
:100B3000D8176FEAE37040F0010070474FEA410CAC
:100B40007FEA6C5C02D150EA013C07D14FEA430CCA
:100B50007FEA6C5CD6D152EA033CD3D05DF8040B3B
:100B6000704700BF8446104662468C46194663466D
:100B700000E000BF01B5FFF7B7FF002848BF10F144
:100B8000000F01BD4DF808EDFFF7F4FF0CBF012089
:100B900000205DF808FB00BF4DF808EDFFF7EAFF05
:100BA00034BF012000205DF808FB00BF4DF808EDC0
:100BB000FFF7E0FF94BF012000205DF808FB00BFB5
:100BC0004DF808EDFFF7CEFF94BF012000205DF83F
:100BD00008FB00BF4DF808EDFFF7C4FF34BF01204C
:100BE00000205DF808FB00BF4FEA410212F5001239
:100BF00015D211D56FF47873B3EB625212D94FEA64
:100C0000C12343F0004343EA505311F0004F23FA4D
:100C100002F018BF404270474FF00000704750EAA2
:100C2000013005D111F0004008BF6FF0004070475F
:100C30004FF00000704700BF4A0011D212F50012B9
:100C400011D20DD56FF47873B3EB62520ED44FEA24
:100C5000C12343F0004343EA505323FA02F07047A4
:100C60004FF00000704750EA013002D14FF0FF30E2
:100C700070474FF000007047F0B583B006460D4650
:100C80001746BDF82040DFF8B0C04FF0000E8CF8DA
:100C900001E0009400F07EF9002849D18446264BFB
:100CA000B3F9060001468646012302E011440133F0
:100CB0009BB2A3420BD2204A02EB4302B2F90620B8
:100CC000724500DD96468242F0DA1046EEE74FF4B8
:100CD000005343FA07F707EE907AB8EEE77ADFEDB4
:100CE000177AC7EE276A091AA1EB0E0107EE901AD0
:100CF000F8EEE77A67EEA67A023C07EE104AB8EE05
:100D0000C77AC7EE876ADFED0E7A86EEA77A05EB23
:100D1000C6050C4E06EB8505D5ED007A67EE877AA1
:100D2000054BC3ED227A01225A70604603B0F0BD34
:100D30004FF0010CF9E700BF2C8B002000007A4433
:100D400000FEFF460000002070B582B0052500952A
:100D500003231A4600210120FFF78EFF2B4ED6ED0C
:100D6000227AF1EE677A2A4CC4ED007A00950323CB
:100D70001A4619460120FFF77FFFD6F888306360D6
:100D800000950023032219461846FFF775FFD6ED9C
:100D9000227AF1EE677AC4ED027A009502232A46A0
:100DA00003210020FFF768FFD6ED227AF1EE677A83
:100DB000C4ED047A00950123032211460020FFF7B9
:100DC0005BFFD6ED227AF1EE677AC4ED037A00205C
:100DD00000F036F8D4ED007A9FED0E7A67EE877A50
:100DE000DFED0D6A87EEA67A0C4B83EDAE7A626872
:100DF000C3F8BC22A268C3F8C0222269C3F8C82283
:100E0000E268C3F8C42202B070BD00BF2C8B002082
:100E1000188B0020000048420000964260870020A6
:100E200010B5064C00224FF48071204601F068FD99
:100E300000228021204601F063FD10BD000800481B
:100E400008B5032811D8DFE800F00211202F002296
:100E500040211B4801F054FD00224FF40041194885
:100E600001F04EFD03200BF088F808BD012240215F
:100E7000134801F045FD03200BF07FF801224FF4E9
:100E80000041104801F03CFDEFE7012240210C48F1
:100E900001F036FD00224FF400410A4801F030FD18
:100EA000032000F073FAE0E700224021044801F03B
:100EB00027FD00224FF40041024801F021FDD4E754
:100EC000000800480004004800B585B0520242F016
:100ED000E30212B242EA01316FEA41416FEA514145
:100EE00001238DF80C30C1F307238DF80D308DF8F8
:100EF0000E1000F1480106230093032303AA4900C2
:100F0000064801F0B3FE18B1012005B05DF804FBFE
:100F100001200BF032F80020F7E700BF10A10020FD
:100F200010B584B000238DF80F308DF80C308DF89B
:100F30000D30154B01221A70134B1B78002BFBD17F
:100F400000F1480464000523009301230DF10F0212
:100F500021460E4801F08AFE10B1012004B010BDF8
:100F600005230093022303AA2146084801F03CFF11
:100F700040B99DF80C209DF80D3043EA0223044A45
:100F80001380EBE70120E9E7BA8B002010A10020D5
:100F9000B88B00202DE9F04105460C4617469846CF
:100FA000BDF818600121FFF73BFF64200AF0E5FF60
:100FB000194803F0B7FF194B00225A709A709E80AF
:100FC0003A4621462846FFF77FFF18B101273846E9
:100FD000BDE8F08107464046FFF732FF0024B442E7
:100FE0000CD22846FFF79CFF98B90C4B03EB440347
:100FF0000B4A1288DA800134A4B2F0E7074B0122D1
:101000009A70054803F0A4FF00212846FFF708FF67
:10101000DDE70127DBE700BF70A200202C8B00205A
:10102000B88B002030B44FF6FF720EE05208013347
:10103000DBB2072B07D812F0010FF7D04AF20101FB
:1010400081EA5202F3E7214628464B1EDCB221B169
:10105000451C03785A400023EBE7104630BC70472C
:1010600010B5114BD3F8A0331A0E104C22701A0C85
:1010700062701A0AA270E370207105212046FFF702
:10108000D1FF6071000AA07107222146084804F0D0
:1010900035FB002304E0074A0021D1540133DBB2C1
:1010A0001F2BF8D910BD00BF60870020C08B002027
:1010B00070A30020E08B002038B5044604229C4930
:1010C0009C480EF047FE002840F01981632C02D0A6
:1010D000272C71D038BD974D0C212846FFF7A2FF71
:1010E000297BC2B26B7BC0F30F20914208BF8342C1
:1010F0004BD1284669790B0903EB83035A0001F0B1
:101100000F010A4402EB82025300A97903EB111389
:1011100003EB83035A0001F00F010A4407EE902A03
:10112000F8EE677AF2EE046A87EEA67A824981EDDC
:10113000E97A6D7A2B0903EB83035A0005F00F055A
:101140002A4402EB82025300857A03EB151303EB6A
:1011500083035A0005F00F052A4402EB8202530074
:10116000C07A03EB101303EB83035A0000F00F0067
:101170000244C1F8A823002381F89D33012381F89C
:101180009C336E4B02221A70A2E76B4A92F89D3391
:101190000133DBB282F89D330A2B99D91346002222
:1011A00083F89D2383F89C230021C3F8A413C3F87C
:1011B000A823C3F8AC238BE75E4C15212046FFF72C
:1011C00031FF617DC2B2A37DC0F30F20914208BF01
:1011D000834217D0584A92F89D330133DBB282F82C
:1011E0009D330A2B7FF676AF1346002283F89D23AA
:1011F00083F89C230021C3F8A413C3F8A823C3F8E1
:10120000AC2367E722466079030903EB83035900A7
:1012100000F00F00014401EB81014B00A07903EBCA
:10122000101303EB8303590000F00F00014401EB9E
:1012300081014B00E07903EB101303EB83035900AA
:1012400000F00F00014401EB81014B00207A03EB19
:10125000101303EB8303590000F00F00014407EE65
:10126000901AB8EE677ADFED366AC7EE267AFCEEA2
:10127000E77A17EE904A3048C0EDEC7A557A2B09A0
:1012800003EB8303590005F00F05294401EB8101AD
:101290004B00957A03EB151303EB8303590005F01C
:1012A0000F05294401EB81014B00D57A03EB15139F
:1012B00003EB8303590005F00F05294401EB81017D
:1012C0004B00117B03EB111303EB83035A0001F076
:1012D0000F010A4407EE902AF8EE677A87EEA67AA5
:1012E000FCEEC77A17EE903AC0EDED7A1C44C0F8D8
:1012F000AC43012380F89C33104A1370EAE60E4A8F
:1013000092F89D330133DBB282F89D330A2B7FF6CE
:10131000E1AE1346002283F89D2383F89C2300212D
:10132000C3F8A413C3F8A823C3F8AC23D2E600BFC4
:10133000C08B0020E08B002060870020BC8B002049
:101340000000C84208B5074A136843F01003136051
:10135000032001F067F800200DF0F2F90DF0D0F94C
:10136000002008BD00200240034A1168034B1B788F
:101370000B441360704700BF008C002080000020E9
:10138000014B1868704700BF008C002038B5044638
:10139000FFF7F6FF0546B4F1FF3F02D0044B1B7880
:1013A0001C44FFF7EDFF401BA042FAD338BD00BF3D
:1013B0008000002070477047704738B50268936816
:1013C00003F00303012B01D0002038BD136813F094
:1013D000010F2FD0936803F00D03012B09D0036C8C
:1013E00043F010030364436C43F0010343640120A2
:1013F000EBE70446936843F002039360036803221B
:101400001A60FFF7BDFF054623689B6813F0010FC4
:101410000ED0FFF7B5FF401B0228F5D9236C43F02F
:1014200010032364636C43F0010363640120CCE781
:101430000020CAE70020C8E738B50268936803F0C7
:101440000303012B0DD09168184B19420FD0036C88
:1014500043F010030364436C43F001034364012031
:1014600038BD136813F0010FEDD00020F8E70446F3
:10147000936843F001039360FFF782FF05462368FA
:101480001B6813F0010F0ED1FFF77AFF401B0228F3
:10149000F5D9236C43F010032364636C43F001031C
:1014A00063640120DCE70020DAE700BF3F00008032
:1014B00030B597B000230193002800F04481044622
:1014C000036C13F0100F52D1036CABB100202368F2
:1014D0009A6812F0805F03D09B6813F0005F47D0DA
:1014E000236C23F0120343F010032364636C43F076
:1014F0000103636401203BE04364C364836480F8B8
:101500003C300BF053FF23689B6813F0805F01D0E1
:101510000020DCE72046FFF750FF236C13F0100F8C
:10152000D5D10028D3D1236C23F4885323F00203B0
:1015300043F0020323642268936823F040539360CE
:101540002268936843F080539360804B1B68804A05
:10155000A2FB03239B0C03EB83035A00019202E0DE
:10156000019B013B0193019B002BF9D1AFE70020C8
:10157000236C13F0100F40F0DD80002840F0DA807B
:1015800023689A6812F0040240F0D480216C21F4A0
:10159000817141F002012164B3F1A04F15D06D4972
:1015A0008B420FD06C49B3F1A04F10D0694DAB42C4
:1015B0006CD06A4DAB426DD0694DAB426DD000230B
:1015C000029307E001F50071EDE76649EBE703F5EB
:1015D000807302932568AB6803F00303012B5FD08F
:1015E000029B23B19D6805F00305012D5DD08B683A
:1015F00023F4403365682B438B60617E4B03656B3E
:10160000012D01D04FF480521343E2681343A268C6
:10161000134394F82020012A4CD0A26A012A0CD04E
:1016200021684E4DA94258D005F58075A94254D085
:1016300022F48052E16A0A4313432268916811F050
:101640000C0F0CD1D16821F4804121F00201D1604E
:10165000217E94F83020520042EA813213432168FF
:10166000CD68414A2A401343CB602369012B58D0EF
:101670002268136B23F00F03136300236364236C4E
:1016800023F0030343F0010323645AE04FF0A04327
:1016900002939FE7324B02939CE7304B029399E70A
:1016A0002B6813F0010FA8D19AE71B6813F0010F04
:1016B000A3D19CE731B9626A013A43EA424343F459
:1016C0008033AAE7226C22F0220242F02002226438
:1016D000626C42F0010262649FE7B2F5307F11D084
:1016E000B2F5807F11D0B2F5E07F11D0B2F58A5FFC
:1016F00011D0B2F5845F11D0B2F5865F9AD14FF464
:10170000C07297E74FF4E07294E74FF4307291E7BC
:101710004FF480728EE74FF470728BE74FF4A07233
:1017200088E721680B6B23F00F03E269013A13434A
:101730000B63A2E7236C23F0120343F0100323642E
:10174000012017B030BD0120FBE700BF9002002050
:1017500083DE1B43000100500007005000040050CE
:10176000000500500003005007C0F0FF70B590F86E
:101770003C30012B3FD00D460446012380F83C301D
:10178000FFF71BFE0646002830D1012323642268A0
:10179000936823F080439360012D1BD022689368E7
:1017A00043F000439360FFF7EBFD054623689B6819
:1017B000002B15DAFFF7E4FD401B0A28F6D9236C4D
:1017C00023F0120343F010032364002384F83C3019
:1017D00001260EE02268936843F080439360DDE7C2
:1017E000236C23F0030343F001032364002384F8F4
:1017F0003C30304670BD0226FBE7000003689B6862
:1018000013F0080F40F0AB8090F83C30012B00F053
:10181000A98010B50446012380F83C30FFF70CFE88
:101820000346002840F09680226C22F4405222F0B9
:10183000010242F4805222642268B2F1A04F41D0EA
:1018400049498A423ED04949896811F01F0F3ED16B
:10185000216C21F480112164216C11F4807F01D16D
:1018600000216164002184F83C106021116022682D
:10187000D16811F4001F03D0516841F480615160B8
:101880006269082A2ED121684A6822F020024A6043
:1018900021684A6842F040024A602268D16811F02B
:1018A000007F5AD1B2F1A04F22D02F498A421FD0D7
:1018B0002E49896811F01F0F1FD1916841F008016E
:1018C00091604AE02A49896811F01F0FC0D0B2F137
:1018D000A04FBDD027498A42BAD0216C41F4801173
:1018E0002164B9E721684A6842F060024A60D4E79F
:1018F0001F49896811F01F0FDFD0B2F1A04F09D046
:1019000019498A4206D01949896801F01F01062940
:1019100006D1D2E71649896801F01F010629CCD00B
:10192000B2F1A04F09D010498A4206D00F49896808
:1019300001F01F01072906D1BFE70D49896801F0B1
:101940001F010729B9D0B2F1A04FB6D009498A4288
:1019500003D1B2E7002284F83C20184610BD0223D0
:10196000184670470223FBE70001005000070050B3
:10197000000300500004005003290BD0042905D0B7
:1019800002290BD00368D3F8800070470368D3F8AE
:101990008C0070470368D3F8880070470368D3F859
:1019A00084007047704770477047000010B50446C8
:1019B00003681A6812F0040F03D05A6812F0040F7B
:1019C00007D11A6812F0080F7FD05A6812F0080F7A
:1019D0007BD0226C12F0100F03D1226C42F4007203
:1019E0002264B3F1A04F28D0A34A934225D0A34A42
:1019F000926812F01F0F25D1D968DA6812F4406F8F
:101A00005DD111F4005F5AD11A6812F0080F56D058
:101A10009A6812F0040F4AD15A6822F00C025A60F8
:101A2000236C23F480732364236C13F4805F46D10A
:101A3000236C43F00103236441E0914A926812F061
:101A40001F0FD9D0B3F1A04F09D08B4A934206D0D3
:101A50008A4A926802F01F02052A06D1CCE7884A1A
:101A6000926802F01F02052AC6D0B3F1A04F09D038
:101A7000814A934206D0814A926802F01F02092AE5
:101A800006D1B9E77E4A926802F01F02092AB3D054
:101A9000B3F1A04FB0D07B4A9342ADD0764A934287
:101AA00002D0784AD168A8E74FF0A042FAE7236C49
:101AB00043F010032364636C43F001036364204626
:101AC000FFF778FC23680C221A6023681A6812F06A
:101AD000200F03D05A6812F0200F09D11A6812F0B3
:101AE000400F00F0DF805A6812F0400F00F0DA80FB
:101AF000226C42F400522264B3F1A04F45D05E4AFA
:101B0000934242D05D4A926812F01F0F42D1D968C9
:101B1000DA6C12F0C00F0CD011F0007F40F0BC80E6
:101B2000DA6812F4406F40F0B78011F4005F40F0C3
:101B3000B3801A6812F0400F00F0AE80B3F1A04FEE
:101B40005DD04D4A93425AD04C4A926812F01F0F12
:101B50005AD1DA6812F4001F40F09E809A6812F0A1
:101B6000080F40F091805A6822F060025A60236C9E
:101B700023F480532364236C13F4807F40F08C8023
:101B8000236C43F00103236486E03D4A926812F01F
:101B90001F0FBCD0B3F1A04F09D0374A934206D0F3
:101BA000364A926802F01F02052A06D1AFE7344A8E
:101BB000926802F01F02052AA9D0B3F1A04F09D004
:101BC0002D4A934206D02D4A926802F01F02092A3C
:101BD00006D19CE72A4A926802F01F02092A96D091
:101BE000B3F1A04F93D0274A934290D0224A934218
:101BF00002D0244AD1688BE74FF0A042FAE7204A8E
:101C0000926812F01F0FA4D0B3F1A04F09D01A4A66
:101C1000934206D0194A926802F01F02062A06D1A2
:101C200097E7174A926802F01F02062A91D0B3F193
:101C3000A04F09D0104A934206D0104A926802F091
:101C40001F02072A07D184E70D4A926802F01F029B
:101C5000072A3FF47EAFB3F1A04F3FF47AAF094AB1
:101C600093423FF476AF044A934202D0054AD268C9
:101C700070E74FF0A042FAE7000100500007005063
:101C80000003005000040050236C43F01003236451
:101C9000636C43F00103636420460CF0C1FB2368CE
:101CA00060221A6023681A6812F0800F03D05B6804
:101CB00013F0800F44D123681A6812F4807F03D098
:101CC0005B6813F4807F46D123681A6812F4007FA2
:101CD00003D05B6813F4007F49D123681A6812F0BF
:101CE000100F23D05A6812F0100F1FD0626B012A18
:101CF0000ED0B3F1A04F49D02F4A934243D02F4A80
:101D0000916811F01F0F43D1DB6813F0010F0AD067
:101D1000236C43F480632364636C43F002036364C5
:101D20002046FFF749FB236810221A6023681A68CF
:101D300012F4806F03D05A6812F4806F2DD110BD59
:101D4000236C43F4803323642046FFF734FB23687D
:101D500080221A60AFE7236C43F4003323642046EB
:101D6000FFF721FE23684FF480721A60ACE7236C02
:101D700043F4802323642046FFF716FE23684FF4C4
:101D800000721A60A9E702F50072B9E70C4AB7E7DA
:101D9000936813F4404FC6D0BAE7226C42F48042F5
:101DA0002264626C42F0080262644FF480621A603E
:101DB0002046FFF7F7FDC2E7000100500007005082
:101DC0000003005070B497B00346002201920069EE
:101DD00093F83C20012A00F06982012283F83C201C
:101DE000002840D08A69012A3DD0D86CC0B9DA6495
:101DF00000229A64086A012800F0E6808A69013AA4
:101E00001C68B24DAC4200F0C18005F58075AC4253
:101E100000F0BC8020F480500243486A02439A6478
:101E20009A6C4C6804EB4404600002301F24844028
:101E300022EA04020C6804FA00F002439A64D86CA7
:101E40000138D864002840F0C3801C68E06C20F0A2
:101E5000FB4020F4EF0020F4BF4020F07F0002435D
:101E6000E264002007E04A68012A4ED01A6C42F072
:101E700020021A6401201A68946814F0080F0DD12A
:101E80004C7F002C40F0A680D46824F440148E7F50
:101E90000D7F2D0545EA46552C43D4601A68946899
:101EA00014F00C0F40F0CD800C6A012C00F0A380E0
:101EB000D46824F00074D4604A7F012A00F0A38023
:101EC0000A68092A40F2A5801E68B46902EB420242
:101ED0001E3A0725954024EA05048D6805FA02F2AA
:101EE0002243B2614C691D68EA68C2F3C102520024
:101EF00004FA02F20C69013C032C00F2FC80DFE8DA
:101F000014F09600CE00D900EF00086A01283AD0FC
:101F10000A6812021C686D4DAC4217D005F5807539
:101F2000AC4213D020F480500243486A02431C683C
:101F3000E06C20F0FB4020F4EF0020F4BF4020F0E4
:101F40007F001043E0649A64002094E7082810D0D2
:101F5000142810D01C2810D05D4CA0420FD041F2A4
:101F60000C04A0420DD041F21804A042DCD12C2078
:101F7000DAE73420D8E71C20D6E71020D4E754480D
:101F8000D2E71420D0E70A681202D0E7082811D05F
:101F9000142811D01C2811D04D4CA04210D041F271
:101FA0000C04A0420ED041F21804A0427FF434AFDA
:101FB0002C2031E734202FE71C202DE710202BE7C1
:101FC000434829E7142027E78A69013A9A6427E7FA
:101FD000002050E7D46824F440148D7F44EA45542F
:101FE000D4600A7F012A7FF459AF1A6C42F02002B4
:101FF0001A64012052E7D46824F000744D7F44EA4B
:102000004564D4605CE71A6C42F020021A64012037
:1020100056E71E68746902EB42020725954024EAE0
:1020200005048D6805FA02F2224372615AE72C6EAC
:10203000284E26400C6842EA8462164346F0004669
:102040002E661C68A26802F00302012A00F0868056
:10205000CA68012A00F08780D4F8B0200E680125F4
:10206000B54022EA0502C4F8B0201A68B2F1A04FC8
:1020700000F0A480184CA24200F09E80174D0C681E
:10208000102C00F09D80112C00F0AE80122C00F07E
:10209000B080002283F83C2017B070BC70476C6E93
:1020A0000C4E26400C6842EA8462164346F0004615
:1020B0006E66C6E7AC6E074E26400C6842EA846244
:1020C000164346F00046AE66BBE700BF0004005072
:1020D0000800010000F0FF830001005000070050DD
:1020E000EE6E734C34400E6842EA8662224342F040
:1020F0000042EA66A5E72A6E02F0F8420C68B2EBED
:10210000846F1CD01C68626E02F0F8420D68B2EB5E
:10211000856F19D01C68A26E02F0F8420D68B2EB10
:10212000856F16D01C68E26E02F0F8420D68B2EBC3
:10213000856F86D1E26E22F00042E26681E72A6E68
:1021400022F000422A66DDE7626E22F000426266FB
:10215000E0E7A26E22F00042A266E3E7226812F0F6
:10216000010F96D174E7D4F8B0200E680125B54070
:102170002A43C4F8B0200A68092A0ED91E68B46937
:1021800002EB42021B3A0725954024EA05048D68BC
:1021900005FA02F22243B26167E71E6874690132F0
:1021A00002EB42020725954024EA05048D6805FAF2
:1021B00002F22243726158E73E4D60E73D4D5EE713
:1021C000AE6816F4000F7FF45EAFB2F1A04F16D0E8
:1021D000394CA24230D0394CA24231D0384CA242C4
:1021E00031D0002202920DE0AE6816F0807FECD074
:1021F0004CE7AC6814F4800F7FF44BAFE5E702F5D1
:10220000807202921C68A26802F00302012A1DD0AB
:10221000029A22B1966806F00306012E20D00A68C1
:10222000102A22D0112A39D0122A7FF432AFAA689C
:1022300042F48002AA602CE74FF0A0420292E1E74C
:102240001F4A0292DEE71D4A0292DBE7226812F083
:10225000010FDDD01A6C42F020021A64012018E749
:10226000126812F0010FF5D1D9E7B4F1A04FD9D11E
:10227000AA6842F40002AA60124A12681249A1FB3D
:102280000212920C02EB82025100019102E0019ACB
:10229000013A0192019A002AF9D1FAE6B4F1A04F6D
:1022A000C2D1AA6842F08072AA60F2E60220F3E688
:1022B00000F0FF83000300500001005000040050B4
:1022C000000500509002002083DE1B4370B495B0DF
:1022D00003460268B2F1A04F0BD04D4882424BD06A
:1022E0004C4882424CD04C4882424CD00022009252
:1022F00002E002F580720092009A002A00F08480C9
:1023000093F83C00012800F08180012083F83C0014
:102310001868846814F0040F6BD1946814F0040FEB
:1023200067D1B0F1A04F33D0394CA0422ED03B48FA
:102330000C68002C3AD0846824F460444D6893F80B
:10234000306045EA46352C4384601D68AC6804F073
:102350000304012C1ED0946804F00304012C1FD048
:10236000826822F4716222F00F020C6889682143AE
:102370000A438260002041E04FF0A0420092BBE798
:10238000254A0092B8E7234A0092B5E72448CFE7F0
:102390002348CDE72C6814F0010FDCD000202DE09D
:1023A000126812F0010FDBD0002027E0816821F4D1
:1023B000604181601C68A16801F0030101290CD013
:1023C000916801F0030101290DD0826822F4716245
:1023D00022F00F028260002010E0216811F0010F4E
:1023E000EED000200AE0126812F0010FEDD00020BC
:1023F00004E01A6C42F020021A640120002283F8E3
:102400003C2015B070BC70470120FAE70220F8E7C5
:10241000000100500004005000050050000700506B
:1024200000030050074AD36823F4E0631B041B0C2D
:10243000000200F4E060184340F0BF6040F4003058
:10244000D060704700ED00E030B4174BDB68C3F399
:102450000223C3F10704042C28BF04241D1D062DEC
:1024600018D9033B4FF0FF3505FA04F421EA0401C3
:10247000994005FA03F322EA0303194300280BDB12
:102480000901C9B200F1604000F5614080F8001315
:1024900030BC70470023E5E700F00F000901C9B226
:1024A000024B1954F4E700BF00ED00E014ED00E02A
:1024B000002807DB00F01F02400901239340024A75
:1024C00042F82030704700BF00E100E0002838D01B
:1024D00010B50446437F1BB30223637723791BBBEC
:1024E0002368194A5A612268936823F0180393609D
:1024F000637913BB23684FF0FF321A612268936837
:1025000023F0600361690B4393602268936823F0B2
:102510008003A1690B43936001236377002010BD02
:1025200003770AF091FFD7E7E268A168204600F040
:102530000DF80028DCD00120F1E7236822691A6138
:10254000DCE70120704700BFB71DC10430B41F2471
:10255000651E3CB105F01F0321FA03F32C4613F06E
:10256000010FF5D0182A23D8DFE802F00F2222222B
:10257000222222221E222222222222221A22222247
:10258000222222220D00062D14D803685961016809
:102590008B6823F018031A438A60002030BC704710
:1025A000072DF2D90120F9E70F2DEED90120F5E72B
:1025B0000120F3E70120F1E702680C4B9A420AD9A7
:1025C0000B4B13440B4AA2FB03231B099B00036420
:1025D000094BC3637047094B1344064AA2FB03230C
:1025E0001B099B000364064BC3637047070402404A
:1025F000F8FBFDBFCDCCCCCC00040240F8FFFDBF02
:102600000000024020B310B50446022380F82130B8
:1026100001680A6822F47F5222F030024368806821
:102620000343E06803432069034360690343A069EF
:102630000343E069034313430B602046FFF7BCFFED
:102640000020A063012384F8213084F8200010BD0D
:102650000120704708B590F82130022B03D00423E5
:102660008363012008BD0268136823F00E03136022
:102670000268136823F001031360036CC16B01222D
:1026800002FA03F34B6080F82120002380F8203009
:10269000436B13B198470020E4E70020E2E738B528
:1026A000C36B1A6804682568016C04238B401342CD
:1026B00013D015F0040F10D0236813F0200F03D1AE
:1026C000236823F004032360016CC26B04238B4056
:1026D0005360C36A03B1984738BD02238B4013424D
:1026E0001AD015F0020F17D0236813F0200F06D16F
:1026F000236823F00A032360012380F82130016C52
:10270000C26B02238B405360002380F82030836A21
:10271000002BE1D09847DFE7082303FA01F11142CB
:10272000DAD015F0080FD7D0236823F00E0323600A
:10273000026CC16B012303FA02F24A60836380F8E2
:102740002130002380F82030036B002BC4D0984741
:10275000C2E70000F0B482B0002336E0062400E0B7
:102760000024B4403C430235614E46F82540614C9C
:102770002568D44304EA05064F6817F4803F01D06A
:1027800042EA05065B4D2E606D6804EA05064F6857
:1027900017F4003F01D042EA0506564D6E60AD6861
:1027A00004EA05064F6817F4801F01D042EA0506C7
:1027B000504DAE60ED682C404E6816F4001F01D0FD
:1027C00042EA05044B4AD46001330A6832FA03F442
:1027D00000F08B8001249C402240F5D04D68022DF2
:1027E00001D0122D10D1DE08083650F826C003F0B3
:1027F0000705AF000F25BD402CEA050C0D69BD4053
:1028000045EA0C0540F8265006685F000325BD40E8
:10281000ED4305EA060C4E6806F00306BE4046EAA4
:102820000C0606604E6806F1FF3CBCF1010F03D9AF
:10283000112E01D0122E10D1866805EA060CCE6842
:10284000BE4046EA0C068660466826EA04044E68E6
:10285000C6F300169E4026434660C46825408C6837
:10286000BC402C43C4604C6814F0805FACD0224C58
:10287000A56945F00105A561A46904F0010401946E
:10288000019C9D08AE1C1A4C54F8267003F00304FA
:10289000A6000F24B44027EA0407B0F1904F3FF49C
:1028A0005FAF164CA04216D004F58064A04214D04D
:1028B00004F58064A04212D004F58064A04210D0D8
:1028C00004F58064A0420ED004F58064A0423FF479
:1028D00045AF072445E7012443E7022441E70324E9
:1028E0003FE704243DE705243BE702B0F0BC704716
:1028F00000000140000401400010024000040048B4
:102900000AB9816270478161704743690B4201D106
:1029100081617047090481617047000008B5054B6B
:102920005B69034200D108BD024B58610BF0D4FD36
:10293000F9E700BF0004014003689A6912F0020F32
:1029400001D000229A6203689A6912F0010F03D144
:102950009A6942F001029A61704770B4039E05685B
:102960006868740D04F4806444F07F7444F458344F
:1029700044F47F7444F0030420EA0400C1F3090125
:1029800041EA0241194331430143696070BC704719
:1029900070B504460D46164603689B6913F0100F88
:1029A0001CD023689A6912F0200F19D1B5F1FF3FAE
:1029B000F7D0FEF7E5FC801BA84201D8002DF0D12E
:1029C000636C43F020036364202384F841300023C8
:1029D00084F8423084F84030012020E000201EE0DE
:1029E0001022DA6123682025DD612046FFF7A4FF6D
:1029F0002268536823F0FF7323F48B3323F4FF73AF
:102A000023F001035360636C43F00403636484F8B0
:102A10004150002384F8423084F84030012070BDDA
:102A200070B504460D46164623689B6913F0020FE5
:102A30001DD1324629462046FFF7AAFFC8B9B5F195
:102A4000FF3FF1D0FEF79CFC801BA84201D8002D6F
:102A5000EAD1636C43F020036364202384F841309F
:102A6000002384F8423084F84030012000E0002048
:102A700070BD0120FCE7F8B505460F4616461C461A
:102A80002B689B6937EA03030CBF01230023B34281
:102A900018D1B4F1FF3FF3D0FEF772FC069BC01AC9
:102AA000A04201D8002CEBD16B6C43F020036B6487
:102AB000202385F84130002385F8423085F84030E6
:102AC000012000E00020F8BD70B505460C46164612
:102AD0002B689B6913F0200F1AD1324621462846F5
:102AE000FFF756FFB0B9FEF74BFC801BA04201D8A0
:102AF000002CEDD16B6C43F020036B64202385F830
:102B00004130002385F8423085F84030012070BD07
:102B10000020FCE70120FAE770B504460D46164692
:102B200023689B6913F0040F3ED1324629462046A4
:102B3000FFF72EFF0146002838D123689A6912F06A
:102B4000200F13D1FEF71CFC801BA84201D8002DDA
:102B5000E6D1636C43F020036364202384F84130A2
:102B6000002384F840300121084670BD9A6912F0B4
:102B7000040F02D0228D002AF6D12022DA612168CA
:102B80004B6823F0FF7323F48B3323F4FF7323F09C
:102B900001034B600023636484F8412084F84230D1
:102BA00084F840300121DFE70021DDE70121DBE788
:102BB000002859D010B5044690F84130002B43D07E
:102BC000242384F841302268136823F00103136042
:102BD0006368226823F0706313612268936823F4AA
:102BE00000439360E368012B33D0A368226843F469
:102BF00004439360E368022B31D02268536843F0AA
:102C0000007343F4004353602268D36823F4004305
:102C1000D360236962691343A169226843EA0123EF
:102C2000D360E369216A22680B431360226813684A
:102C300043F00103136000206064202384F84130D6
:102C4000206384F8420010BD80F840300BF092FA07
:102C5000B6E7A368226843F400439360CAE7236899
:102C60004FF400625A60C8E7012070472DE9F04335
:102C700083B090F84150EDB2202D40F0A48090F840
:102C80004040012C00F0A480984617460E460446AA
:102C90004FF0010980F84090FEF772FB0546009066
:102CA00019234A464FF400412046FFF7E4FE00286E
:102CB00040F09080212384F84130102384F8423082
:102CC000002363646762A4F82A806363638D9BB208
:102CD000FF2B0AD9FF222285424B00934FF08073CD
:102CE00031462046FFF739FE18E0628D92B2228508
:102CF0003C4B00934FF00073D2B231462046FFF7B1
:102D00002CFE0BE0628D92B22285002300934FF0DF
:102D10000073D2B231462046FFF71FFE638D9BB28F
:102D2000002B33D02A460A992046FFF779FE002867
:102D300052D1626A236812789A62636A01336362CD
:102D4000638D013B9BB26385238D013B9BB2238541
:102D5000628D92B2002AE1D0002BDFD100950A9B50
:102D6000002280212046FFF786FE002836D1638DA1
:102D70009BB2FF2BC6D9FF222285002300934FF080
:102D8000807331462046FFF7E8FDC7E72A460A99D7
:102D90002046FFF799FE034610BB22682021D1612F
:102DA0002068426822F0FF7222F48B3222F4FF7214
:102DB00022F00102426084F84110002284F842208F
:102DC00084F8402000E00223184603B0BDE8F083F9
:102DD0000223F9E70123F7E70123F5E70123F3E7EE
:102DE0000123F1E7002000802DE9F04383B090F843
:102DF0004150EDB2202D40F0A48090F84040012CCD
:102E000000F0A480984617460E4604464FF001098C
:102E100080F84090FEF7B4FA0546009019234A4620
:102E20004FF400412046FFF726FE002840F0908036
:102E3000222384F84130102384F842300023636455
:102E40006762A4F82A806363638D9BB2FF2B0AD963
:102E5000FF222285424B00934FF08073314620467B
:102E6000FFF77BFD18E0628D92B222853C4B009308
:102E70004FF00073D2B231462046FFF76EFD0BE0F3
:102E8000628D92B22285002300934FF00073D2B27C
:102E900031462046FFF761FD638D9BB2002B33D096
:102EA0002A460A992046FFF737FE002852D12368A8
:102EB0005A6A636A1A70636A01336362238D013B45
:102EC0009BB22385628D013A92B26285628D92B285
:102ED000002AE1D0002BDFD100950A9B002280213F
:102EE0002046FFF7C8FD002836D1638D9BB2FF2B2B
:102EF000C6D9FF222285002300934FF0807331460C
:102F00002046FFF72AFDC7E72A460A992046FFF721
:102F1000DBFD034610BB22682021D1612068426896
:102F200022F0FF7222F48B3222F4FF7222F00102AF
:102F3000426084F84110002284F8422084F8402046
:102F400000E00223184603B0BDE8F0830223F9E74E
:102F50000123F7E70123F5E70123F3E70123F1E775
:102F60000024008090F84130DBB2202B24D190F86F
:102F70004030012B22D0012380F84030242380F8F8
:102F800041300268136823F001031360026813687C
:102F900023F48053136002681368194311600268B8
:102FA000136843F001031360202380F841300023AD
:102FB00080F8403018467047022070470220704762
:102FC00090F84130DBB2202B22D190F84030012B19
:102FD00020D0012380F84030242380F8413002685B
:102FE000136823F0010313600268136823F470630D
:102FF00043EA012111600268136843F00103136082
:10300000202380F84130002380F840301846704774
:10301000022070470220704740B338B50446036869
:103020004CF6CC421A60036845F255521A600368A8
:1030300042685A60036882689A60FEF7A1F9054603
:103040002368DA6832B1FEF79BF9401B3028F7D9C4
:10305000032038BD1969E268914202D01A6100204C
:10306000F7E74AF6AA221A600020F2E7012070472B
:1030700003684AF6AA221A6000207047002853D03D
:10308000F0B587B0044690F829323BB1032384F8A9
:103090002932206803F036F8002316E080F8283241
:1030A0000CF072F8F2E704EB4312012182F82910C8
:1030B00082F82830D386002182F82B109163D163E7
:1030C0009A1C5201A1500133DBB260688342EAD3FB
:1030D000002312E004EB4311002281F8292181F83A
:1030E000283181F82B21C1F83821C1F83C2103F1A6
:1030F0000A01490162500133DBB29842EAD8254601
:1031000055F8107B6E460FCD0FC62B683360231D1C
:103110000ECB384603F000F8002084F82400012389
:1031200084F8293207B0F0BD0120704790F82832AA
:10313000012B10D010B50446012180F828120CF0A4
:1031400038F9206803F014FB206802F0D3FF002058
:1031500084F8280210BD0220704790F82832012B15
:103160000DD010B50446012380F8283280F82410D1
:10317000006803F0F7FA002084F8280210BD02204E
:10318000704770B511F0800F23D101F007056D0174
:1031900005F5947404440544002685F8296101F07E
:1031A000070121702261E370627802B1E181022B94
:1031B0001AD090F82832012B19D00546012380F847
:1031C00028322146006802F0BDFF002085F8280261
:1031D00070BD01F007056D0105F1280404440544A4
:1031E000012685F82960DAE700232371E1E7022050
:1031F000EEE710B511F0800F1CD101F007035B0161
:1032000003F5947202440344002483F8294101F039
:103210000703137090F82832012B16D004460123BF
:1032200080F828321146006803F03BF9002084F84A
:10323000280210BD01F007035B0103F128020244DC
:103240000344012483F82940E1E70220F1E770B547
:1032500001F007056C0104F5947101440444C4F8BD
:103260003C2105F10A025201861883500023736045
:1032700084F8293184F8285125B1006803F094FAC4
:10328000002070BD006803F08FFAF9E701F0070134
:103290000A3100EB41114868704770B501F007052D
:1032A0006C0104F1280101440444E263AA1C5201A8
:1032B0008618835000237360012384F8293084F832
:1032C000285025B1006803F06FFA002070BD006837
:1032D00003F06AFAF9E7F8B504462068B0F844301C
:1032E00013F4004F00F09981B0F844309BB213F012
:1032F0000F0540F0C18013F0100F52D003889BB22D
:1033000013F4006F40F0818013F4004FE5D0038880
:1033100023F070031B051B0D43F08003038020681E
:10332000B0F8503094F8282103EBC2030344B3F8FB
:103330000634C3F30903C4F844318BB1D4F83C110B
:1033400071B1B4F82E2103F09DFBD4F84421D4F8D8
:103350003C311344C4F83C31002120460BF044FFBB
:103360002368B3F850201344D4F83821002A6CD1D4
:10337000B3F8062422F4F8426FEA42426FEA52425E
:10338000A3F80624226813889BB223F4804323F019
:10339000700383F4405343F4004343F080031380ED
:1033A0009BE703889BB223F4E14323F070036FEAA9
:1033B00043436FEA53439BB203802268B2F8503014
:1033C00094F8281003EBC1031344B3F80234C3F399
:1033D00009036364E26B1344E363002120460BF0AE
:1033E0000DFF94F82430002B3FF477AF236C002BB3
:1033F0007FF473AF94F82430226843F08003A2F87E
:103400004C30002384F8243067E7B0F8503094F84B
:10341000282103EBC2030344B3F80634C3F30903C2
:10342000C4F84431B4F82E2104F50C7103F02AFBE2
:103430002268138823F070031B051B0D43F08003E3
:10344000138020460BF0C8FE47E73E2A08D85108F3
:1034500012F0010F00D001318902A3F8061491E7A0
:10346000510912F01F0F00D101396FEAC1616FEAF3
:103470005141A3F8061485E730F82560B6B216F47A
:10348000004F31D116F0800F3FF427AF226832F899
:1034900025309BB223F4E14323F070036FEA4343EA
:1034A0006FEA53439BB222F825302268B2F85030BD
:1034B00004EB451090F8281003EBC1031344B3F854
:1034C0000224C2F30902AB1C5B01E1184A60C16B24
:1034D0000A44C263E358002B40F0978090F828100C
:1034E00020460BF08BFEF8E630F8253023F0700311
:1034F0001B051B0D43F0800320F8253004EB45131A
:1035000093F83431C3B92068B0F8503004EB451259
:1035100092F8282103EBC2030344B3F80674C7F3FF
:1035200009077FB304EB45113B46B1F82E21D1F8D2
:103530003C1103F0A7FA25E0206804EB451393F84B
:10354000282130F8223013F4804F41D0B0F85030A9
:1035500003EBC2030344B3F80274C7F309076FBB5C
:10356000226804EB451393F8281132F821309BB2FE
:1035700023F4E04323F0700343F4004343F0C0031B
:1035800022F8213005F10A035B01E1184A683A4448
:103590004A6004EB4511D1F83C213A44C1F83C2182
:1035A000E3581BB1D1F838118F4226D204EB4513F2
:1035B00093F8281120460BF017FE63E704EB451142
:1035C0003B46B1F83021D1F83C1103F05BFAC7E774
:1035D000B0F8503003EBC2030344B3F80674C7F3EA
:1035E0000907002FBCD004EB45113B46B1F832214E
:1035F000D1F83C1103F046FAB2E704EB451191F81B
:1036000028112046FFF723FE3CE704EB451595F80B
:1036100028102046FFF741FE5FE60020F8BD10B5F8
:103620000446006803F0A6F810F4004F45D1206866
:1036300003F0A0F810F4806F43D1206803F09AF8EB
:1036400010F4804F08D02268B2F844309BB223F4C3
:1036500080439BB2A2F84430206803F08BF810F44A
:10366000005F08D02268B2F844309BB223F40053C4
:103670009BB2A2F84430206803F07CF810F4805F1D
:1036800030D1206803F076F810F4006F49D120683B
:1036900003F070F810F4007F64D1206803F06AF83A
:1036A00010F4807F08D02268B2F844309BB223F433
:1036B00080739BB2A2F8443010BD2046FFF70BFE8A
:1036C000B5E72268B2F844309BB223F480639BB222
:1036D000A2F8443020460BF0A0FD00212046FFF761
:1036E0003CFDAAE72268B2F840309BB223F0040305
:1036F0009BB2A2F840302268B2F840309BB223F06F
:1037000008039BB2A2F8403020460BF0A7FD2268C8
:10371000B2F844309BB223F480539BB2A2F84430F9
:10372000AFE72268B2F8403043F00803A2F8403017
:103730002268B2F844309BB223F400639BB2A2F833
:1037400044302268B2F8403043F00403A2F840301D
:10375000206803F00FF810F4805F98D120460BF03A
:103760006DFD94E72268B2F844309BB223F40073F5
:103770009BB2A2F8443020460BF049FD8DE738B5E6
:1037800001F0070543689D422CD811F0800F1AD133
:103790004B0103F5947101440344002283F829216D
:1037A00001238B700D7090F82832012B1CD0044639
:1037B000012380F82832006802F05EFF65B1002026
:1037C00084F828020FE06B0103F12801014403444F
:1037D000012283F82920E3E704F50C71206802F048
:1037E000CCFFECE7012038BD0220FCE701F00F021E
:1037F00043689A422DD810B511F0800F1ED101F008
:1038000007035B0103F5947202440344002483F828
:1038100029410023937001F00703137090F82832B8
:10382000012B18D00446012380F828321146006885
:1038300002F047FF002084F8280210BD01F00703C2
:103840005B0103F1280202440344012483F8294068
:10385000DFE7012070470220EFE711F0800F0CD066
:1038600001F007014901283101445AB101220A73CC
:103870000B811B0C4B8100207047490101F59471AD
:103880000144F2E70A73CB80F5E70000002800F05E
:10389000198370B582B00446036813F0010F3DD060
:1038A000B44B5B6803F00C03042B20D0B14B5B6876
:1038B00003F00C03082B13D06368B3F5803F6AD084
:1038C000002B40F08D8003F1804303F504331A6828
:1038D00022F480321A601A6822F480221A605FE0B3
:1038E000A44B5B6803F4C033B3F5803FE4D14FF4DD
:1038F000003393FAA3F39F4B19684FF4003393FA04
:10390000A3F3B3FA83F303F01F03012202FA03F3D4
:103910000B4203D06368002B00F0D682236813F0BB
:10392000020F00F0C180934B5B6813F00C0F00F0A6
:103930009780904B5B6803F00C03082B00F08880A5
:10394000E368002B00F0EE80012292FAA2F3B3FAB2
:1039500083F303F1845303F584139B001A60FDF78E
:103960000FFD0546022393FAA3F3824B1968022345
:1039700093FAA3F3B3FA83F303F01F03012202FACD
:1039800003F30B4240F0BF80FDF7FAFC401B022816
:10399000E8D903209FE2774A136843F48033136029
:1039A0006368002B36D0FDF7EBFC05464FF400337F
:1039B00093FAA3F36F4B19684FF4003393FAA3F310
:1039C000B3FA83F303F01F03012202FA03F30B425D
:1039D000A4D1FDF7D5FC401B6428E7D903207AE287
:1039E000B3F5A02F09D0634B1A6822F480321A6015
:1039F0001A6822F480221A60D2E703F18043A3F50B
:103A00003C331A6842F480221A601A6842F4803209
:103A10001A60C5E7FDF7B4FC05464FF4003393FA8E
:103A2000A3F3544B19684FF4003393FAA3F3B3FA9A
:103A300083F303F01F03012202FA03F30B423FF466
:103A40006DAFFDF79DFC401B6428E6D9032042E2E0
:103A5000484B5B6803F4C033B3F5004F7FF470AF9D
:103A6000022393FAA3F3434B1968022393FAA3F3B7
:103A7000B3FA83F303F01F03012202FA03F30B42AC
:103A800004D0E368934201D0012024E2394803685E
:103A900023F0F8032169F82292FAA2F2B2FA82F234
:103AA00001FA02F213430360236813F0080F00F0D9
:103AB0008D806369002B61D0012191FAA1F2B2FAE5
:103AC00082F22D4B13449B001960FDF759FC05460B
:103AD000022393FAA3F293FAA3F293FAA3F2254AEC
:103AE000516A93FAA3F3B3FA83F303F01F0301229D
:103AF00002FA03F30B4269D1FDF742FC401B022896
:103B0000E6D90320E7E11B48036823F0F8032169A5
:103B1000F82292FAA2F2B2FA82F201FA02F2134306
:103B20000360C1E7012393FAA3F3B3FA83F303F12C
:103B3000845303F584139B0000221A60FDF720FCD8
:103B40000546022393FAA3F30A4B1968022393FA5A
:103B5000A3F3B3FA83F303F01F03012202FA03F382
:103B60000B42A1D0FDF70CFC401B0228E9D9032031
:103B7000B1E100BF0010024020819010012292FAB2
:103B8000A2F2B2FA82F2BF4B13449B0000221A60E9
:103B9000FDF7F6FB0546022393FAA3F293FAA3F28C
:103BA00093FAA3F2B84A516A93FAA3F3B3FA83F3F0
:103BB00003F01F03012202FA03F30B4206D0FDF7C4
:103BC000DFFB401B0228E6D9032084E1236813F0C1
:103BD000040F00F0B380AC4BDB6913F0805F20D1A1
:103BE000A94BDA6942F08052DA61DB6903F0805355
:103BF0000193019B0125A54B1B6813F4807F12D014
:103C0000A368012B23D073BB03F1804303F5043376
:103C10001A6A22F001021A621A6A22F004021A6277
:103C20001AE00025E7E7994A136843F480731360AC
:103C3000FDF7A6FB0646954B1B6813F4807FDFD18A
:103C4000FDF79EFB801B6428F5D9032043E18E4AD3
:103C5000136A43F001031362A368002B41D0FDF700
:103C60008FFB06462BE0052B09D0874B1A6A22F002
:103C700001021A621A6A22F004021A62ECE7824B0D
:103C80001A6A42F004021A621A6A42F001021A62C7
:103C9000E2E77D4B196A022393FAA3F3B3FA83F3A5
:103CA00003F01F03012202FA03F3194245D1FDF785
:103CB00067FB801B41F28833984200F207810223A0
:103CC00093FAA3F293FAA3F3B3FA83F35B0943F0F5
:103CD0000203022BDDD0022393FAA3F36A4B596A45
:103CE000D9E7FDF74DFB064615E0674B196A02233D
:103CF00093FAA3F3B3FA83F303F01F03012202FA4A
:103D000003F3194219D0FDF73BFB801B41F28833C6
:103D1000984200F2DD80022393FAA3F293FAA3F310
:103D2000B3FA83F35B0943F00203022BDDD00223D5
:103D300093FAA3F3544B596AD9E7B5BBA369002B97
:103D400000F0C880504A526802F00C02082A00F0C5
:103D50009F80022B2FD04FF0807393FAA3F3B3FA16
:103D600083F303F1845303F584139B0000221A604C
:103D7000FDF706FB04464FF0007393FAA3F3424BA2
:103D800019684FF0007393FAA3F3B3FA83F303F0C7
:103D90001F03012202FA03F3194271D0FDF7F0FA72
:103DA000001B0228E7D9032095E0374AD36923F0A6
:103DB0008053D361C2E74FF0807393FAA3F3B3FA51
:103DC00083F303F1845303F584139B0000221A60EC
:103DD000FDF7D6FA05464FF0007393FAA3F32A4B8A
:103DE00019684FF0007393FAA3F3B3FA83F303F067
:103DF0001F03012202FA03F3194206D0FDF7C0FAAD
:103E0000401B0228E7D9032065E01F4AD36A23F04C
:103E10000F03616A0B43D362536823F47613216A5C
:103E2000E06901430B4353604FF0807393FAA3F3AF
:103E3000B3FA83F303F1845303F584139B00012247
:103E40001A60FDF79DFA04464FF0007393FAA3F34E
:103E50000D4B19684FF0007393FAA3F3B3FA83F391
:103E600003F01F03012202FA03F3194206D1FDF702
:103E700087FA001B0228E7D903202CE000202AE063
:103E8000002028E0208190100010024000700040C7
:103E9000012B22D0134A5368D06A03F4C031E2697F
:103EA000914201D0012016E003F47013226A93427C
:103EB00001D001200FE000F00F00636A98420ED09D
:103EC000012008E001207047012004E0032002E007
:103ED000032000E0002002B070BD0120FBE70020BD
:103EE000F9E700BF0010024010B4184B5C6804F002
:103EF0000C03082B28D104F470124FF4701393FABA
:103F0000A3F3B3FA83F322FA03F31149C85C0F4B0E
:103F1000DB6A03F00F030F2292FAA2F2B2FA82F2E6
:103F2000D3400B441A7C14F4803F07D1094BB3FBF8
:103F3000F2F300FB03F05DF8044B7047054BB3FB55
:103F4000F2F300FB03F0F6E70248F4E7001002404A
:103F5000082E010800127A00002800F0C18070B518
:103F60000446614B1B6803F007038B420CD25E4A88
:103F7000136823F007030B431360136803F0070370
:103F80008B4201D0012070BD236813F0020F06D0D0
:103F9000564A536823F0F003A068034353600D466C
:103FA000236813F0010F5AD06368012B2DD0022B28
:103FB00040D0022292FAA2F24C4A1068022292FAEF
:103FC000A2F2B2FA82F202F01F02012101FA02F219
:103FD000104200F0878045494A6822F003021343EB
:103FE0004B60FDF7CDF90646404B5B6803F00C03D0
:103FF0006268B3EB820F32D0FDF7C2F9801B41F249
:1040000088339842F0D90320BDE74FF4003292FA8A
:10401000A2F2364A10684FF4003292FAA2F2B2FAD3
:1040200082F202F01F02012101FA02F20242D2D111
:104030000120A8E74FF0007292FAA2F22B4A106812
:104040004FF0007292FAA2F2B2FA82F202F01F026C
:10405000012101FA02F21042BDD1012093E7224B67
:104060001B6803F00703AB420CD91F4A136823F007
:1040700007032B431360136803F00703AB4201D01F
:10408000012080E7236813F0040F06D0174A536815
:1040900023F4E063E1680B435360236813F0080FD7
:1040A00007D0124A536823F46053216943EAC103DD
:1040B0005360FFF719FF0D4B5B6803F0F003F0222C
:1040C00092FAA2F2B2FA82F2D340094AD35CD84003
:1040D000084B1860084B18680AF032FB002052E7C2
:1040E0000120704701204EE70020024000100240EE
:1040F0009C4001089002002084000020014B1868B9
:10410000704700BF9002002008B5FFF7F7FF074B8C
:104110005B6803F4E0634FF4E06292FAA2F2B2FA51
:1041200082F2D340024AD35CD84008BD001002405E
:10413000AC40010808B5FFF7E1FF074B5B6803F4EB
:1041400060534FF4605292FAA2F2B2FA82F2D34074
:10415000024AD35CD84008BD00100240AC400108C0
:104160000F2303600B4B5A6802F0030242605A6847
:1041700002F0F00282605A6802F4E062C2605B689A
:10418000DB0803F4E0630361034B1B6803F00703E0
:104190000B6070470010024000200240F0B583B071
:1041A0000446036813F4803F48D0A14BDB6913F049
:1041B000805F40F022819E4BDA6942F08052DA61E2
:1041C000DB6903F080530193019B0125994B1B6828
:1041D00013F4807F00F01381954B1B6A13F4407336
:1041E00022D0626802F440729A421DD09048016A5F
:1041F00021F440764FF4803393FAA3F2B2FA82F2BC
:104200008D4F3A4492004FF0010CC2F800C093FA6F
:10421000A3F3B3FA83F33B449B0000221A600662C7
:1042200011F0010F40F00081814A136A23F44073BA
:1042300061680B431362002D40F02881236813F05E
:10424000010F06D07A4A136B23F00303A1680B43D6
:104250001363236813F0020F06D0754A136B23F41F
:104260004033E1680B431363236813F0040F06D057
:104270006F4A136B23F4402321690B4313632368B4
:1042800013F0200F06D06A4A136B23F01003E16984
:104290000B431363236813F4003F06D0644A53684A
:1042A00023F48003616D0B435360236813F0400FC8
:1042B00006D05F4A136B23F02003216A0B4313637C
:1042C000236813F4802F06D0594A136B23F0400360
:1042D000616A0B431363236813F0080F06D0544A36
:1042E000136B23F4401361690B431363236813F0CA
:1042F000100F06D04E4A136B23F44003A1690B4301
:104300001363236813F4007F06D0494A536823F4EB
:104310000003216B0B435360236813F0800F06D01A
:10432000434AD36A23F4F873A16A0B43D362236828
:1043300013F4807F06D03E4AD36A23F47853E16AAF
:104340000B43D362236813F4805F06D0384A136BA3
:1043500023F48073616B0B431363236813F4005FD2
:1043600006D0334A136B23F40073216C0B431363A1
:10437000236813F4801F06D02D4A136B23F080733B
:10438000A16B0B431363236813F4001F06D0284A64
:10439000136B23F00073E16B0B431363236813F477
:1043A000800F06D0224A136B23F48063616C0B43A9
:1043B0001363236813F4000F06D01D4A136B23F414
:1043C0000063A16C0B431363236813F0807F06D056
:1043D000174A136B23F40053E16C0B4313632368F8
:1043E00013F0007F59D0124A136B23F40043216D60
:1043F0000B431363002003B0F0BD0025E6E60D4A31
:10440000136843F480731360FCF7BAFF0646094B48
:104410001B6813F4807F7FF4DFAEFCF7B1FF801BD5
:104420006428F4D90320E6E7FCF7AAFF06461BE060
:10443000001002400070004000819010184B196A73
:10444000022393FAA3F3B3FA83F303F01F030122C9
:1044500002FA03F30B427FF4E7AEFCF791FF801BF7
:1044600041F28833984216D8022393FAA3F293FAC2
:10447000A3F3B3FA83F35B0943F00203022BDDD00D
:10448000022393FAA3F3064B596AD9E7D36923F0C1
:104490008053D361D2E60320ADE70020ABE700BF35
:1044A0000010024038B504460268D36823F0A00328
:1044B000D360FCF765FF05462368DB6813F0200F27
:1044C00007D1FCF75DFF401BB0F57A7FF4D90320DC
:1044D00000E0002038BD38B50368DA6812F0400FFC
:1044E00001D0002038BD04464FF0FF32DA60FCF7FF
:1044F00047FF05462368DB6813F0400F07D1FCF740
:104500003FFF401BB0F57A7FF4D90320EAE7002093
:10451000E8E738B500285CD00446437F002B40D044
:10452000022363772368CA225A62236853225A629D
:104530002046FFF7D0FF0546002836D12268936851
:1045400023F4E00323F04003936021688A686368E2
:10455000206903436069034313438B602368E26867
:104560001A6122681369A16843EA01431361226852
:10457000D36823F08003D36023689B6813F0200F77
:104580001BD02268136C23F4802313642268136CFD
:10459000A1690B4313642368FF225A6201236377E6
:1045A00009E003770AF032F8BAE72368FF225A627B
:1045B000042363770125284638BD2046FFF772FFA4
:1045C0000028DED02368FF225A6204236377012586
:1045D000F1E70125EFE7F8B505460F4616461C46FC
:1045E0002B689B6837EA03030CBF01230023B34207
:1045F00037D0B4F1FF3FF3D0FCF7C2FE069BC01AE0
:10460000A04201D2002CEBD12A68536823F0E003CA
:1046100053606B68B3F5827F0BD0AB6AB3F5005F74
:1046200014D0012385F85D30002385F85C30032029
:1046300018E0AB68B3F5004F02D0B3F5806FECD152
:104640002A68136823F040031360E6E72A681368BA
:1046500023F4005313602A68136843F40053136073
:10466000DFE70020F8BDF8B507460C4615461E46A4
:1046700002E0B6F1FF3F0BD13A6893682340AB42AA
:104680003BD0B4F5C06FF4D1002DF2D1137BF0E72D
:10469000FCF776FE069BC01AB04201D2002EEBD189
:1046A0003A68536823F0E00353607B68B3F5827F78
:1046B0000BD0BB6AB3F5005F14D0012387F85D30DF
:1046C000002387F85C30032018E0BB68B3F5004F87
:1046D00002D0B3F5806FECD13A68136823F0400341
:1046E0001360E6E73A68136823F4005313603A68EE
:1046F000136843F400531360DFE70020F8BD70B582
:1047000082B004460D46164600920B4600224FF436
:10471000C051FFF7A8FFB8B900962B4600228021B0
:104720002046FFF758FFB8B900962B4600224FF4F9
:10473000C0612046FFF797FF034650B1236E43F058
:1047400020032366032304E0236E43F02003236643
:104750000323184602B070BD236E43F02003236686
:104760000323F6E7002858D010B5044600238362DF
:1047700090F85D30002B45D0022384F85D3022682C
:10478000136823F040031360E368B3F5E06F3ED98C
:104790000022B3F5706F04D0B3F5E06F01D00021B3
:1047A000A162216B21B9B3F5E06F33D902232363F2
:1047B0006368A1680B4321690B4361690B43A169DD
:1047C00001F400710B43E1690B43216A0B43A06ABA
:1047D000216803430B60638B03F00403616A0B439E
:1047E000616B0B43E1680B43216813434B60226804
:1047F000D36923F40063D36100202066012384F889
:104800005D3010BD80F85C3009F03CFFB4E74FF438
:104810008052BEE701232363CAE7012070472DE9D8
:10482000F843DDF8208090F85C40012C00F05C81BA
:104830001D4617460E460446012380F85C30FCF7FF
:104840009FFD814694F85D00C0B26368012814D0D2
:10485000B3F5827F09D00223012284F85D20002273
:1048600084F85C201846BDE8F883A368002B40F06C
:104870002D81042801D00223EEE7002E00F02881CC
:10488000002F00F02781002D00F0268194F85D3084
:10489000DBB2042B02D0052384F85D3000232366AD
:1048A0002764A4F84650A4F84450A663E587A5877A
:1048B000E3642365E368B3F5E06F01D8012D22D9E5
:1048C0002268536823F48053536023681A6812F0F7
:1048D000400F03D11A6842F040021A60E368B3F552
:1048E000E06F56D963680BB1012D0AD1A26B236822
:1048F0001288DA60A36B0233A363E38F013B9BB2A0
:10490000E387012525E02268536843F48053536010
:10491000DBE723689A6812F0010F10D0B4F8462044
:1049200092B262B1DA68236C1A80236C023323647A
:10493000B4F84630013B9BB2A4F846300125FCF7A1
:104940001FFDA0EB0900404503D3B8F1FF3F40F045
:10495000C580E38F9BB22BB9B4F846309BB2002BD5
:1049600000F0A78023689A6812F0020FD1D0E28F7E
:1049700092B2002ACDD0002DCBD0A26B1288DA6083
:10498000A36B0233A363E38F013B9BB2E387002554
:10499000BFE763680BB1012D0ED1E38F9BB2012BF2
:1049A0000CD9A26B23681288DA60A36B0233A3636D
:1049B000E38F023B9BB2E387012547E0A26B2368AC
:1049C00012781A73A36B0133A363E38F013B9BB28D
:1049D000E387F1E7E28F92B2012A0BD9A26B12882A
:1049E000DA60A36B0233A363E38F023B9BB2E387DE
:1049F00000253CE0A26B12781A73A36B0133A3630A
:104A0000E38F013B9BB2E387002530E022685368C7
:104A100043F48053536001250CE0226C1B7B137020
:104A2000236C01332364B4F84630013B9BB2A4F8F5
:104A300046300125FCF7A4FCA0EB0900404502D359
:104A4000B8F1FF3F4CD1B8F1000F4BD0E38F9BB2D0
:104A50001BB9B4F846309BB25BB323689A6812F076
:104A6000020F04D0E28F92B20AB1002DB2D12368B6
:104A70009A6812F0010FDDD0B4F8462092B2002AF5
:104A8000D8D0B4F8462092B2012AC6D9DA68236C8D
:104A90001A80236C02332364B4F84630023B9BB285
:104AA000A4F84630B4F846309BB2012BAED90125AC
:104AB000C0E74A4641462046FFF721FE034600284C
:104AC0003FF4CAAE202323660123C5E60223C3E6D2
:104AD0000123C1E60123BFE60123BDE60323BBE6B4
:104AE0000323B9E60323B7E60223BBE670470000C1
:104AF00030B585B00446026850689368C3F38011EE
:104B000049B913F0010F06D010F0400F03D0E36C49
:104B10002046984708E013F0020F07D010F0800FEE
:104B200004D0236D2046984705B030BDC3F340152F
:104B30001DB911B913F4807FF6D010F0200FF3D017
:104B400079B194F85D10C9B2032953D0216E41F0B8
:104B50000401216600210091D168009191680091C3
:104B6000009965B1216E41F0010121660021029199
:104B700091680291116821F040011160029A13F4CA
:104B8000807F09D0236E43F008032366002303933C
:104B900023689B680393039B236E002BC4D0226879
:104BA000536823F0E0035360012384F85D3010F074
:104BB000030F27D02268536823F003035360A36DCB
:104BC0004BB1124A5A63A06DFDF744FD18B1236E34
:104BD00043F040032366636D002BA5D00B4A5A6354
:104BE000606DFDF737FD00289ED0236E43F0400333
:104BF000236699E700230193D36801939368019397
:104C0000019B91E72046FFF771FF8DE7114C0008EB
:104C100008B5406A0023A0F84630C387FFF766FF57
:104C200008BD000030B4036A23F001030362036A85
:104C30004468826922F4803222F073020D682A43AC
:104C400023F002038D682B43204DA84213D005F5B5
:104C50000065A8420FD005F54065A8420BD005F5C8
:104C60008065A84207D005F58065A84203D005F508
:104C70000065A84205D123F00803CD682B4323F03B
:104C80000403124DA84213D005F50065A8420FD0C9
:104C900005F54065A8420BD005F58065A84207D010
:104CA00005F58065A84203D005F50065A84205D149
:104CB00024F440754C692C438D692C434460826117
:104CC0004A684263036230BC704700BF002C014059
:104CD00030B4036A23F480730362036A4468C269D0
:104CE00022F4803222F073020D682A4323F4007309
:104CF0008D6843EA05231C4DA84207D005F50065E1
:104D0000A84203D005F5E055A84206D123F400637C
:104D1000CD6843EA052323F48063134DA84213D0E2
:104D200005F50065A8420FD005F54065A8420BD0F7
:104D300005F58065A84207D005F58065A84203D037
:104D400005F50065A84207D124F440544D6944EAB2
:104D500005148D6944EA05144460C2614A68C2635F
:104D6000036230BC704700BF002C014030B4036ABE
:104D700023F480530362036A4468C26922F080729C
:104D800022F4E6420D6842EA052223F400538D68BE
:104D900043EA0533114DA84213D005F50065A8423A
:104DA0000FD005F54065A8420BD005F58065A842F7
:104DB00007D005F58065A84203D005F50065A84237
:104DC00004D124F480444D6944EA85144460C261EE
:104DD0004A680264036230BC704700BF002C014087
:104DE00030B4036A23F480330362036A4468426D7B
:104DF00022F4803222F070020D682A4323F400333B
:104E00008D6843EA0543114DA84213D005F50065AE
:104E1000A8420FD005F54065A8420BD005F5806586
:104E2000A84207D005F58065A84203D005F50065C6
:104E3000A84204D124F480344D6944EA0524446036
:104E400042654A688265036230BC7047002C0140AD
:104E500030B4036A23F480130362036A4468426D2A
:104E600022F0807222F4E0420D6842EA052223F427
:104E700000138D6843EA0553114DA84213D005F580
:104E80000065A8420FD005F54065A8420BD005F596
:104E90008065A84207D005F58065A84203D005F5D6
:104EA0000065A84204D124F480244D6944EA852495
:104EB000446042654A68C265036230BC704700BF07
:104EC000002C014010B4036A046A24F00104046257
:104ED000846924F0F00444EA021223F00A030B432D
:104EE000826103625DF8044B704710B4036A23F0DB
:104EF000100303628469036A24F4704444EA0232B2
:104F000023F0A00343EA0113826103625DF8044BBE
:104F10007047836823F07003194341F007018160F3
:104F2000704700000268D36843F00103D360026851
:104F30009168064B0B40062B06D0B3F5803F03D09B
:104F4000136843F00103136000207047070001005D
:104F50000268D36823F00103D3600368196A41F241
:104F60001112114208D1196A40F24442114203D190
:104F70001A6822F001021A600020704770477047DB
:104F80007047704710B5044603681A6912F0020FA3
:104F900011D0DA6812F0020F0DD06FF002021A6120
:104FA0000123037703689B6913F0030F79D0FFF7A0
:104FB000E6FF0023237723681A6912F0040F12D04A
:104FC000DA6812F0040F0ED06FF004021A610223A7
:104FD000237723689B6913F4407F68D02046FFF74E
:104FE000CEFF0023237723681A6912F0080F12D02E
:104FF000DA6812F0080F0ED06FF008021A6104236D
:1050000023772368DB6913F0030F57D02046FFF79F
:10501000B6FF0023237723681A6912F0100F12D00D
:10502000DA6812F0100F0ED06FF010021A61082328
:1050300023772368DB6913F4407F46D02046FFF7CF
:105040009EFF0023237723681A6912F0010F03D013
:10505000DA6812F0010F3FD123681A6912F0800F4D
:1050600003D0DA6812F0800F3DD123681A6912F478
:10507000807F03D0DA6812F0800F3BD123681A6971
:1050800012F0400F03D0DA6812F0400F39D12368D4
:105090001A6912F0200F03D0DA6812F0200F37D10E
:1050A00010BDFFF76BFF2046FFF76AFF81E7204640
:1050B000FFF764FF2046FFF763FF92E72046FFF704
:1050C0005DFF2046FFF75CFFA3E72046FFF756FF92
:1050D0002046FFF755FFB4E76FF001021A61204642
:1050E00009F044FAB8E76FF080021A61204600F038
:1050F000B0FABAE76FF480721A61204600F0AAFA9B
:10510000BCE76FF040021A612046FFF73AFFBEE7A6
:105110006FF020021A61204600F09AFAC0E7000002
:105120000368324A904212D0B0F1804F0FD0A2F5FE
:10513000943290420BD002F58062904207D002F583
:105140009632904203D002F5E052904203D123F010
:1051500070034A681343254A90421ED0B0F1804F35
:105160001BD0A2F59432904217D002F58062904293
:1051700013D002F5963290420FD002F54062904271
:105180000BD002F58062904207D002F58062904217
:1051900003D002F50062904203D123F44073CA6841
:1051A000134323F080034A69134303608B68C3628F
:1051B0000B6883620D4B984213D003F5006398424D
:1051C0000FD003F5406398420BD003F580639842FB
:1051D00007D003F58063984203D003F5006398423B
:1051E00001D10B690363012343617047002C014027
:1051F000A8B110B5044690F83D305BB1022384F8A5
:105200003D30211D2068FFF78BFF012384F83D30DE
:10521000002010BD80F83C3009F0CCFCEEE7012006
:105220007047A8B110B5044690F83D305BB1022339
:1052300084F83D30211D2068FFF772FF012384F8B8
:105240003D30002010BD80F83C3009F093FCEEE7C3
:105250000120704730B4036A23F010030362036A2D
:105260004468826922F0807222F4E6420D6842EAC4
:10527000052223F020038D6843EA05131B4DA84245
:1052800007D005F50065A84203D005F5E055A84212
:1052900006D123F08003CD6843EA051323F04003D1
:1052A000124DA84213D005F50065A8420FD005F5B0
:1052B0004065A8420BD005F58065A84207D005F5EA
:1052C0008065A84203D005F50065A84207D124F403
:1052D00040644D6944EA85048D6944EA850444606C
:1052E00082614A688263036230BC7047002C0140CF
:1052F00038B590F83C30012B00F092800D46044602
:10530000012380F83C30022380F83D30142A1ED857
:10531000DFE802F00B1D1D1D241D1D1D381D1D1D68
:105320004B1D1D1D5F1D1D1D72000068FFF77AFCDF
:105330002268936943F0080393612268936923F01C
:10534000040393612268936929690B4393610123E4
:1053500084F83D30002084F83C0038BD0068FFF739
:1053600079FF2268936943F400639361226893692B
:1053700023F48063936122689369296943EA0123D6
:105380009361E4E70068FFF7A3FC2268D36943F068
:105390000803D3612268D36923F00403D361226830
:1053A000D36929690B43D361D1E70068FFF7DEFCBD
:1053B0002268D36943F40063D3612268D36923F47C
:1053C0008063D3612268D369296943EA0123D361E9
:1053D000BDE70068FFF704FD2268536D43F0080342
:1053E00053652268536D23F0040353652268536D9F
:1053F00029690B435365AAE70068FFF729FD226876
:10540000536D43F4006353652268536D23F4806346
:1054100053652268536D296943EA0123536596E772
:1054200002209AE710B4846824F47F4442EA0323FC
:105430000B43234383605DF8044B704790F83C3086
:10544000012B64D010B50446012380F83C300223C0
:1054500080F83D30026890682E4B034093600B68E3
:10546000402B4AD013D9602B3DD01ED9702B28D0A9
:10547000B3F5005F30D1CB684A6889682068FFF7D0
:10548000D1FF2268936843F48043936024E0102B9B
:1054900006D004D9202B03D0302B01D01CE0DBB97F
:1054A00019462068FFF735FD16E0502B14D1CA6865
:1054B00049682068FFF706FD50212068FFF729FDA5
:1054C0000AE0CB684A6889682068FFF7ABFF22686A
:1054D000936843F077039360012384F83D30002004
:1054E00084F83C0010BDCA6849682068FFF7FDFCDD
:1054F00060212068FFF70DFDEEE7CA684968206863
:10550000FFF7E0FC40212068FFF703FDE4E70220FD
:10551000704700BF8800FEFF90F83C30012B46D05A
:1055200030B4012380F83C30022380F83D3002681B
:10553000536895681F4CA24207D004F50064A2424C
:1055400003D004F5E054A24203D123F470034C6865
:10555000234323F070030C68234353600368154A08
:10556000934216D0B3F1804F13D0A2F594329342F8
:105570000FD002F5806293420BD002F5963293422F
:1055800007D002F54062934203D002F58052934265
:1055900004D125F080058A6815439D60012380F8B9
:1055A0003D30002380F83C30184630BC7047022064
:1055B000704700BF002C014090F83C30012B42D0D6
:1055C00010B4012380F83C30CB6823F440738A6820
:1055D000134323F480634A68134323F400630A6887
:1055E000134323F480530A69134323F400534A6995
:1055F000134323F480438A6A134323F470238A6994
:1056000043EA02430268114CA24207D004F5006449
:10561000A24203D004F5E054A2420CD123F470035B
:105620004C6A43EA045323F08073CC69234323F08C
:105630000073096A0B435364002380F83C3018461A
:105640005DF8044B70470220704700BF002C0140FA
:105650007047704770470268136823F490731360B3
:105660000268936823F0010393602023836700237B
:1056700003667047436F212B00D07047B0F852305B
:105680009BB26BB1C26C036812781A85C36C01338C
:10569000C364B0F85230013B9BB2A0F85230ECE743
:1056A0000268136823F0800313600268136843F0F4
:1056B000400313607047436F212B00D07047B0F850
:1056C00052309BB27BB1C36C1B880268C3F30803E2
:1056D0001385C36C0233C364B0F85230013B9BB2F4
:1056E000A0F85230EAE70268136823F080031360E1
:1056F0000268136843F0400313607047436F202B28
:1057000028D149B352B390F87030012B28D001232F
:1057100080F87030C164A0F85020A0F85220002317
:105720004366C367212343678368B3F5805F0BD06B
:105730000C4B4366002380F8703001680A6842F021
:1057400080020A60184670470369002BF0D1064BAF
:105750004366EFE702207047012070470120704741
:105760000220704775560008B7560008836F202B3B
:105770005AD100295AD0002A5AD090F87030012B03
:1057800058D0012380F870304165A0F85820A0F867
:105790005A20002303668368B3F5805F06D0A3B95F
:1057A000036973B9FF23A0F85C3014E0036923B9DF
:1057B00040F2FF13A0F85C300DE0FF23A0F85C304E
:1057C00009E07F23A0F85C3005E0B3F1805F1BD0D7
:1057D0000023A0F85C300023C3672223836702689C
:1057E000936843F0010393608368B3F5805F15D03D
:1057F000114B0366002380F8703001680A6842F498
:1058000090720A601846704703691BB97F23A0F89D
:105810005C30E0E73F23A0F85C30DCE70369002B55
:10582000E6D1064B0366E5E702207047012070478A
:1058300001207047022070475B580008BD580008DF
:1058400008B501680A6822F040020A602022426717
:105850000022426608F044FE08BD08B5B0F85C308E
:10586000826F222A05D00268936943F0080393618E
:1058700008BD0268918CDBB2426D0B401370436D22
:1058800001334365B0F85A30013B9BB2A0F85A305F
:10589000B0F85A309BB2002BEAD10268136823F4A7
:1058A000907313600268936823F0010393602023D0
:1058B00083670023036608F035FED9E708B5B0F822
:1058C0005C30826F222A05D00268936943F0080396
:1058D000936108BD0268918C426D0B401380436D4B
:1058E00002334365B0F85A30013B9BB2A0F85A30FE
:1058F000B0F85A309BB2002BEBD10268136823F446
:10590000907313600268936823F00103936020236F
:1059100083670023036608F005FEDAE7704700009E
:1059200038B504460168CB6908688D6840F60F02F7
:105930001A400CD113F0200F09D010F0200F06D020
:10594000236E002B00F0A180204698479DE0002A9E
:105950007DD015F0010202D110F4907F77D013F0C2
:10596000010F07D010F4807F04D001250D62E16F94
:105970002943E16713F0020F07D032B121680225F5
:105980000D62E16F41F00401E16713F0040F07D0ED
:1059900032B1216804250D62E16F41F00201E16737
:1059A00013F0080F09D010F0200F00D12AB122689F
:1059B00008211162E26F0A43E26713F4006F0AD014
:1059C00010F0806F07D022684FF400611162E26F1F
:1059D00042F02002E267E26F002A56D013F0200F57
:1059E00006D010F0200F03D0236E0BB1204698474D
:1059F000E26F23689B6813F0400F02D112F0280F6A
:105A00001FD02046FFF727FE23689A6812F0400F48
:105A100013D09A6822F040029A60E36E4BB11D4A9F
:105A20005A63E06EFCF716FE78B3E06E436B98475E
:105A30002BE02046FFF772FF27E02046FFF76EFFBE
:105A400023E02046FFF76AFF0023E3671DE013F41D
:105A5000801F02D015F4800F0AD113F0800F0ED0F2
:105A600010F0800F0BD0636E7BB1204698470CE09E
:105A70004FF480130B62204600F03BFB05E013F06F
:105A8000400F02D010F0400F00D138BD2046FFF784
:105A9000D7FEFAE7995A000808B5406A0023A0F833
:105AA0005A30A0F85230FFF739FF08BD10B5044650
:105AB00083680269134342691343C269134301684F
:105AC0000868A14A024013430B602268536823F41C
:105AD0004053E1680B435360A269236A1A4321686B
